{
  "contractName": "LuckyWinner",
  "abi": [
    {
      "constant": true,
      "inputs": [
        {
          "internalType": "address",
          "name": "",
          "type": "address"
        }
      ],
      "name": "balanceOf",
      "outputs": [
        {
          "internalType": "uint256",
          "name": "",
          "type": "uint256"
        }
      ],
      "payable": false,
      "stateMutability": "view",
      "type": "function"
    },
    {
      "constant": true,
      "inputs": [],
      "name": "enrollFee",
      "outputs": [
        {
          "internalType": "uint256",
          "name": "",
          "type": "uint256"
        }
      ],
      "payable": false,
      "stateMutability": "view",
      "type": "function"
    },
    {
      "constant": true,
      "inputs": [
        {
          "internalType": "address",
          "name": "",
          "type": "address"
        }
      ],
      "name": "enrolledUsers",
      "outputs": [
        {
          "internalType": "address payable",
          "name": "userAddress",
          "type": "address"
        },
        {
          "internalType": "bool",
          "name": "enrolled",
          "type": "bool"
        },
        {
          "internalType": "string",
          "name": "name",
          "type": "string"
        },
        {
          "internalType": "string",
          "name": "email",
          "type": "string"
        },
        {
          "internalType": "string",
          "name": "phone",
          "type": "string"
        }
      ],
      "payable": false,
      "stateMutability": "view",
      "type": "function"
    },
    {
      "constant": true,
      "inputs": [],
      "name": "totalEnrolleFees",
      "outputs": [
        {
          "internalType": "uint256",
          "name": "",
          "type": "uint256"
        }
      ],
      "payable": false,
      "stateMutability": "view",
      "type": "function"
    },
    {
      "constant": true,
      "inputs": [
        {
          "internalType": "uint256",
          "name": "",
          "type": "uint256"
        }
      ],
      "name": "users",
      "outputs": [
        {
          "internalType": "address payable",
          "name": "userAddress",
          "type": "address"
        },
        {
          "internalType": "bool",
          "name": "enrolled",
          "type": "bool"
        },
        {
          "internalType": "string",
          "name": "name",
          "type": "string"
        },
        {
          "internalType": "string",
          "name": "email",
          "type": "string"
        },
        {
          "internalType": "string",
          "name": "phone",
          "type": "string"
        }
      ],
      "payable": false,
      "stateMutability": "view",
      "type": "function"
    },
    {
      "constant": true,
      "inputs": [],
      "name": "winnerAddress",
      "outputs": [
        {
          "internalType": "address payable",
          "name": "",
          "type": "address"
        }
      ],
      "payable": false,
      "stateMutability": "view",
      "type": "function"
    },
    {
      "constant": false,
      "inputs": [
        {
          "components": [
            {
              "internalType": "address payable",
              "name": "userAddress",
              "type": "address"
            },
            {
              "internalType": "bool",
              "name": "enrolled",
              "type": "bool"
            },
            {
              "internalType": "string",
              "name": "name",
              "type": "string"
            },
            {
              "internalType": "string",
              "name": "email",
              "type": "string"
            },
            {
              "internalType": "string",
              "name": "phone",
              "type": "string"
            }
          ],
          "internalType": "struct LuckyWinner.User",
          "name": "user",
          "type": "tuple"
        }
      ],
      "name": "enrollUser",
      "outputs": [
        {
          "components": [
            {
              "internalType": "address payable",
              "name": "userAddress",
              "type": "address"
            },
            {
              "internalType": "bool",
              "name": "enrolled",
              "type": "bool"
            },
            {
              "internalType": "string",
              "name": "name",
              "type": "string"
            },
            {
              "internalType": "string",
              "name": "email",
              "type": "string"
            },
            {
              "internalType": "string",
              "name": "phone",
              "type": "string"
            }
          ],
          "internalType": "struct LuckyWinner.User[]",
          "name": "",
          "type": "tuple[]"
        }
      ],
      "payable": true,
      "stateMutability": "payable",
      "type": "function"
    },
    {
      "constant": false,
      "inputs": [],
      "name": "getEnrolledData",
      "outputs": [
        {
          "components": [
            {
              "internalType": "address payable",
              "name": "userAddress",
              "type": "address"
            },
            {
              "internalType": "bool",
              "name": "enrolled",
              "type": "bool"
            },
            {
              "internalType": "string",
              "name": "name",
              "type": "string"
            },
            {
              "internalType": "string",
              "name": "email",
              "type": "string"
            },
            {
              "internalType": "string",
              "name": "phone",
              "type": "string"
            }
          ],
          "internalType": "struct LuckyWinner.User[]",
          "name": "",
          "type": "tuple[]"
        },
        {
          "internalType": "uint256",
          "name": "",
          "type": "uint256"
        },
        {
          "internalType": "uint256",
          "name": "",
          "type": "uint256"
        }
      ],
      "payable": false,
      "stateMutability": "nonpayable",
      "type": "function"
    },
    {
      "constant": false,
      "inputs": [],
      "name": "announceRandomWinner",
      "outputs": [
        {
          "internalType": "address",
          "name": "",
          "type": "address"
        },
        {
          "internalType": "uint256",
          "name": "",
          "type": "uint256"
        },
        {
          "internalType": "uint256",
          "name": "",
          "type": "uint256"
        }
      ],
      "payable": false,
      "stateMutability": "nonpayable",
      "type": "function"
    }
  ],
  "bytecode": "0x60806040526000600355670de0b6b3a764000060055534801561002157600080fd5b5061180a806100316000396000f3fe6080604052600436106100865760003560e01c806370a082311161005957806370a0823114610154578063823f925014610191578063dae87955146101d2578063ed7a4e0b146101ff578063ff9d3ab61461022a57610086565b8063200bb50d1461008b578063365b98b2146100b65780636477a230146100f75780636e67f8dd14610127575b600080fd5b34801561009757600080fd5b506100a0610255565b6040516100ad91906115e4565b60405180910390f35b3480156100c257600080fd5b506100dd60048036036100d891908101906112c8565b61025b565b6040516100ee9594939291906114e5565b60405180910390f35b610111600480360361010c9190810190611287565b610493565b60405161011e9190611584565b60405180910390f35b34801561013357600080fd5b5061013c6109f0565b60405161014b939291906115a6565b60405180910390f35b34801561016057600080fd5b5061017b6004803603610176919081019061125e565b610cb8565b60405161018891906115e4565b60405180910390f35b34801561019d57600080fd5b506101b860048036036101b3919081019061125e565b610cd0565b6040516101c99594939291906114e5565b60405180910390f35b3480156101de57600080fd5b506101e7610efb565b6040516101f69392919061154d565b60405180910390f35b34801561020b57600080fd5b50610214611015565b60405161022191906114ca565b60405180910390f35b34801561023657600080fd5b5061023f61103b565b60405161024c91906115e4565b60405180910390f35b60035481565b6002818154811061026857fe5b90600052602060002090600402016000915090508060000160009054906101000a900473ffffffffffffffffffffffffffffffffffffffff16908060000160149054906101000a900460ff1690806001018054600181600116156101000203166002900480601f01602080910402602001604051908101604052809291908181526020018280546001816001161561010002031660029004801561034d5780601f106103225761010080835404028352916020019161034d565b820191906000526020600020905b81548152906001019060200180831161033057829003601f168201915b505050505090806002018054600181600116156101000203166002900480601f0160208091040260200160405190810160405280929190818152602001828054600181600116156101000203166002900480156103eb5780601f106103c0576101008083540402835291602001916103eb565b820191906000526020600020905b8154815290600101906020018083116103ce57829003601f168201915b505050505090806003018054600181600116156101000203166002900480601f0160208091040260200160405190810160405280929190818152602001828054600181600116156101000203166002900480156104895780601f1061045e57610100808354040283529160200191610489565b820191906000526020600020905b81548152906001019060200180831161046c57829003601f168201915b5050505050905085565b606060055434146104a357600080fd5b60055460036000828254019250508190555060026040518060a001604052803373ffffffffffffffffffffffffffffffffffffffff168152602001600115158152602001846040015181526020018460600151815260200184608001518152509080600181540180825580915050906001820390600052602060002090600402016000909192909190915060008201518160000160006101000a81548173ffffffffffffffffffffffffffffffffffffffff021916908373ffffffffffffffffffffffffffffffffffffffff16021790555060208201518160000160146101000a81548160ff02191690831515021790555060408201518160010190805190602001906105b1929190611041565b5060608201518160020190805190602001906105ce929190611041565b5060808201518160030190805190602001906105eb929190611041565b505050506040518060a001604052803373ffffffffffffffffffffffffffffffffffffffff168152602001600115158152602001836040015181526020018360600151815260200183608001518152506000803373ffffffffffffffffffffffffffffffffffffffff1673ffffffffffffffffffffffffffffffffffffffff16815260200190815260200160002060008201518160000160006101000a81548173ffffffffffffffffffffffffffffffffffffffff021916908373ffffffffffffffffffffffffffffffffffffffff16021790555060208201518160000160146101000a81548160ff02191690831515021790555060408201518160010190805190602001906106fc929190611041565b506060820151816002019080519060200190610719929190611041565b506080820151816003019080519060200190610736929190611041565b509050506002805480602002602001604051908101604052809291908181526020016000905b828210156109e557838290600052602060002090600402016040518060a00160405290816000820160009054906101000a900473ffffffffffffffffffffffffffffffffffffffff1673ffffffffffffffffffffffffffffffffffffffff1673ffffffffffffffffffffffffffffffffffffffff1681526020016000820160149054906101000a900460ff16151515158152602001600182018054600181600116156101000203166002900480601f0160208091040260200160405190810160405280929190818152602001828054600181600116156101000203166002900480156108895780601f1061085e57610100808354040283529160200191610889565b820191906000526020600020905b81548152906001019060200180831161086c57829003601f168201915b50505050508152602001600282018054600181600116156101000203166002900480601f01602080910402602001604051908101604052809291908181526020018280546001816001161561010002031660029004801561092b5780601f106109005761010080835404028352916020019161092b565b820191906000526020600020905b81548152906001019060200180831161090e57829003601f168201915b50505050508152602001600382018054600181600116156101000203166002900480601f0160208091040260200160405190810160405280929190818152602001828054600181600116156101000203166002900480156109cd5780601f106109a2576101008083540402835291602001916109cd565b820191906000526020600020905b8154815290600101906020018083116109b057829003601f168201915b5050505050815250508152602001906001019061075c565b505050509050919050565b6060600080600260035460045482805480602002602001604051908101604052809291908181526020016000905b82821015610ca757838290600052602060002090600402016040518060a00160405290816000820160009054906101000a900473ffffffffffffffffffffffffffffffffffffffff1673ffffffffffffffffffffffffffffffffffffffff1673ffffffffffffffffffffffffffffffffffffffff1681526020016000820160149054906101000a900460ff16151515158152602001600182018054600181600116156101000203166002900480601f016020809104026020016040519081016040528092919081815260200182805460018160011615610100020316600290048015610b4b5780601f10610b2057610100808354040283529160200191610b4b565b820191906000526020600020905b815481529060010190602001808311610b2e57829003601f168201915b50505050508152602001600282018054600181600116156101000203166002900480601f016020809104026020016040519081016040528092919081815260200182805460018160011615610100020316600290048015610bed5780601f10610bc257610100808354040283529160200191610bed565b820191906000526020600020905b815481529060010190602001808311610bd057829003601f168201915b50505050508152602001600382018054600181600116156101000203166002900480601f016020809104026020016040519081016040528092919081815260200182805460018160011615610100020316600290048015610c8f5780601f10610c6457610100808354040283529160200191610c8f565b820191906000526020600020905b815481529060010190602001808311610c7257829003601f168201915b50505050508152505081526020019060010190610a1e565b505050509250925092509250909192565b60016020528060005260406000206000915090505481565b60006020528060005260406000206000915090508060000160009054906101000a900473ffffffffffffffffffffffffffffffffffffffff16908060000160149054906101000a900460ff1690806001018054600181600116156101000203166002900480601f016020809104026020016040519081016040528092919081815260200182805460018160011615610100020316600290048015610db55780601f10610d8a57610100808354040283529160200191610db5565b820191906000526020600020905b815481529060010190602001808311610d9857829003601f168201915b505050505090806002018054600181600116156101000203166002900480601f016020809104026020016040519081016040528092919081815260200182805460018160011615610100020316600290048015610e535780601f10610e2857610100808354040283529160200191610e53565b820191906000526020600020905b815481529060010190602001808311610e3657829003601f168201915b505050505090806003018054600181600116156101000203166002900480601f016020809104026020016040519081016040528092919081815260200182805460018160011615610100020316600290048015610ef15780601f10610ec657610100808354040283529160200191610ef1565b820191906000526020600020905b815481529060010190602001808311610ed457829003601f168201915b5050505050905085565b6000806000806000905060028181548110610f1257fe5b906000526020600020906004020160000160009054906101000a900473ffffffffffffffffffffffffffffffffffffffff16600660006101000a81548173ffffffffffffffffffffffffffffffffffffffff021916908373ffffffffffffffffffffffffffffffffffffffff16021790555060004790506000600660009054906101000a900473ffffffffffffffffffffffffffffffffffffffff1690508073ffffffffffffffffffffffffffffffffffffffff166108fc839081150290604051600060405180830381858888f19350505050158015610ff6573d6000803e3d6000fd5b5060006003819055508060035483829250955095509550505050909192565b600660009054906101000a900473ffffffffffffffffffffffffffffffffffffffff1681565b60055481565b828054600181600116156101000203166002900490600052602060002090601f016020900481019282601f1061108257805160ff19168380011785556110b0565b828001600101855582156110b0579182015b828111156110af578251825591602001919060010190611094565b5b5090506110bd91906110c1565b5090565b6110e391905b808211156110df5760008160009055506001016110c7565b5090565b90565b6000813590506110f58161176b565b92915050565b60008135905061110a81611782565b92915050565b60008135905061111f81611799565b92915050565b600082601f83011261113657600080fd5b81356111496111448261162c565b6115ff565b9150808252602083016020830185838301111561116557600080fd5b611170838284611718565b50505092915050565b600060a0828403121561118b57600080fd5b61119560a06115ff565b905060006111a5848285016110fb565b60008301525060206111b984828501611110565b602083015250604082013567ffffffffffffffff8111156111d957600080fd5b6111e584828501611125565b604083015250606082013567ffffffffffffffff81111561120557600080fd5b61121184828501611125565b606083015250608082013567ffffffffffffffff81111561123157600080fd5b61123d84828501611125565b60808301525092915050565b600081359050611258816117b0565b92915050565b60006020828403121561127057600080fd5b600061127e848285016110e6565b91505092915050565b60006020828403121561129957600080fd5b600082013567ffffffffffffffff8111156112b357600080fd5b6112bf84828501611179565b91505092915050565b6000602082840312156112da57600080fd5b60006112e884828501611249565b91505092915050565b60006112fd8383611437565b905092915050565b61130e816116d0565b82525050565b61131d816116d0565b82525050565b61132c816116be565b82525050565b600061133d82611668565b611347818561168b565b93508360208202850161135985611658565b8060005b85811015611395578484038952815161137685826112f1565b94506113818361167e565b925060208a0199505060018101905061135d565b50829750879550505050505092915050565b6113b0816116e2565b82525050565b6113bf816116e2565b82525050565b60006113d082611673565b6113da818561169c565b93506113ea818560208601611727565b6113f38161175a565b840191505092915050565b600061140982611673565b61141381856116ad565b9350611423818560208601611727565b61142c8161175a565b840191505092915050565b600060a08301600083015161144f6000860182611305565b50602083015161146260208601826113a7565b506040830151848203604086015261147a82826113c5565b9150506060830151848203606086015261149482826113c5565b915050608083015184820360808601526114ae82826113c5565b9150508091505092915050565b6114c48161170e565b82525050565b60006020820190506114df6000830184611314565b92915050565b600060a0820190506114fa6000830188611314565b61150760208301876113b6565b818103604083015261151981866113fe565b9050818103606083015261152d81856113fe565b9050818103608083015261154181846113fe565b90509695505050505050565b60006060820190506115626000830186611323565b61156f60208301856114bb565b61157c60408301846114bb565b949350505050565b6000602082019050818103600083015261159e8184611332565b905092915050565b600060608201905081810360008301526115c08186611332565b90506115cf60208301856114bb565b6115dc60408301846114bb565b949350505050565b60006020820190506115f960008301846114bb565b92915050565b6000604051905081810181811067ffffffffffffffff8211171561162257600080fd5b8060405250919050565b600067ffffffffffffffff82111561164357600080fd5b601f19601f8301169050602081019050919050565b6000819050602082019050919050565b600081519050919050565b600081519050919050565b6000602082019050919050565b600082825260208201905092915050565b600082825260208201905092915050565b600082825260208201905092915050565b60006116c9826116ee565b9050919050565b60006116db826116ee565b9050919050565b60008115159050919050565b600073ffffffffffffffffffffffffffffffffffffffff82169050919050565b6000819050919050565b82818337600083830152505050565b60005b8381101561174557808201518184015260208101905061172a565b83811115611754576000848401525b50505050565b6000601f19601f8301169050919050565b611774816116be565b811461177f57600080fd5b50565b61178b816116d0565b811461179657600080fd5b50565b6117a2816116e2565b81146117ad57600080fd5b50565b6117b98161170e565b81146117c457600080fd5b5056fea365627a7a72315820bc9c1f32f43141fa8d5b91ac76644421832e82ac6008a3165d031d6c8f7317d56c6578706572696d656e74616cf564736f6c63430005100040",
  "source": "pragma experimental ABIEncoderV2;\npragma solidity >=0.4.21 <0.6.0;\n\ncontract LuckyWinner {\n    mapping(address => User) public enrolledUsers;\n    mapping(address => uint256) public balanceOf;\n    User[] public users;\n    uint256 public totalEnrolleFees = 0;\n    uint256 totalUsers;\n    uint256 public enrollFee = 1 ether;\n    // address adminAddress;\n    address payable public winnerAddress;\n\n    // constructor() public {\n    //     adminAddress = msg.sender;\n    // }\n\n    struct User {\n        address payable userAddress;\n        bool enrolled;\n        string name;\n        string email;\n        string phone;\n    }\n\n    function enrollUser(User memory user)\n        public\n        payable\n        returns (User[] memory)\n    {\n        // TODO put condition to check if already enrolled\n        require(msg.value == enrollFee);\n        totalEnrolleFees += enrollFee;\n        users.push(\n            User({\n                userAddress: msg.sender,\n                name: user.name,\n                email: user.email,\n                phone: user.phone,\n                enrolled: true\n            })\n        );\n        // balanceOf[msg.sender] += enrollFee;\n        enrolledUsers[msg.sender] = User({\n                userAddress: msg.sender,\n                name: user.name,\n                email: user.email,\n                phone: user.phone,\n                enrolled: true\n            });\n        return users;\n    }\n\n    //    function random() private view returns (uint256) {\n    //                 return uint(keccak256(abi.encodePacked(block.difficulty, block.timestamp, users)));\n\n    //             // return uint256(keccak256(abi.encodePacked(block.timestamp, block.difficulty)));\n\n    //     }\n\n    function getEnrolledData()\n        public\n        returns (\n            User[] memory,\n            uint256,\n            uint256\n        )\n    {\n        return (users, totalEnrolleFees, totalUsers);\n    }\n\n    function announceRandomWinner()\n        public\n        returns (\n            address,\n            uint256,\n            uint256\n        )\n    {\n        uint256 index = 0;\n        // uint256 index = random() % users.length;\n        winnerAddress = users[index].userAddress;\n        uint256 contractBalance = address(this).balance;\n\n        address payable receiver = winnerAddress;\n\n        receiver.transfer(contractBalance);\n        // address(winnerAddress).transfer(address(this).balance);\n        // User memory winner = users[randomNumber - 1];\n        // address winnerAddress = winner.userAddress;\n        totalEnrolleFees = 0;\n        return (receiver, totalEnrolleFees, contractBalance);\n    }\n}\n",
  "sourcePath": "/Users/deepak/Desktop/Code/ai/lucky-winner/src/contracts/LuckyWinner.sol",
  "compiler": {
    "name": "solc",
    "version": "0.5.16+commit.9c3226ce.Emscripten.clang"
  },
  "schemaVersion": "3.0.23",
  "updatedAt": "2022-02-17T04:24:33.630Z",
  "networkType": "ethereum",
  "devdoc": {
    "methods": {}
  },
  "userdoc": {
    "methods": {}
  }
}